:020000040800F2
:1000000000000220B9020008BF020008C302000875
:1000100035030008390300088103000800000000D0
:10002000000000000000000000000000C9030008FC
:10003000CD03000800000000D1030008911800085B
:10004000E5030008E5030008E5030008E5030008F0
:10005000E5030008E5030008E5030008E5030008E0
:10006000E5030008E5030008E5030008E5030008D0
:10007000E5030008E5030008E5030008E5030008C0
:10008000E5030008E5030008E5030008E5030008B0
:10009000E5030008E5030008E5030008E5030008A0
:1000A000E5030008E5030008E5030008E503000890
:1000B000E5030008E5030008E5030008E503000880
:1000C000E5030008E5030008E5030008E503000870
:1000D000E5030008E5030008E5030008E503000860
:1000E000E5030008E5030008E5030008E503000850
:1000F000E5030008E5030008E5030008E503000840
:10010000E5030008E5030008E5030008E50300082F
:10011000E5030008E5030008E5030008E50300081F
:10012000E5030008E5030008E5030008E50300080F
:10013000E5030008E5030008E5030008E5030008FF
:10014000E5030008E5030008E5030008E5030008EF
:10015000E5030008E5030008E5030008E5030008DF
:10016000E5030008E5030008E5030008E5030008CF
:10017000E5030008E5030008E503000800000000AF
:10018000E5030008E503000800B583B001F004FAB8
:10019000384B394A1360394A1360394906E052F83E
:1001A000041B43F8041B9842F9D86146354B994229
:1001B00005D20A684B6801F10C0C8868F3E72E4BF6
:1001C0001A68314B9A4200D0FEE72C4B1A682F4B2D
:1001D0009A42F9D1274B2E4A13602E4A13602E4AB9
:1001E00000E002462D4B9A4209D2104650F8083BD7
:1001F00051689942F5D9002243F8042BF9E7244BC2
:100200001B6813B9234B1B6803B1FEE701F078FAB2
:10021000694601A801F004F8214C224BE41AA4100D
:10022000002504E01F4B53F8253098470135AC42B8
:10023000F8DC1D4C1D4BE41AA410002504E01B4BF8
:1002400053F8253098470135AC42F8DC0099019805
:1002500001F098FA0546164C164BE41AA41004E077
:10026000013C144B53F824309847002CF8DC284606
:1002700000F072FFBABADECA00000020840000203D
:10028000E8030008000400087856341232547698C7
:10029000880000204C020020000400081004000820
:1002A00010040008100400081004000810040008DE
:1002B000100400081004000808B5FFF765FF00BE31
:1002C000FEE71EF0040F0CBFEFF30880EFF3098088
:1002D0007146414A10472DE9F04182B004460D466F
:1002E000124B5F6BD3F838809E6A1B6B13F0020FC2
:1002F00003D00E4BDB6A002B0BDB0D4801F026F818
:10030000009543463A463146204601F05BF800BE70
:10031000FEE74BF6AB6101F0CFF80028EDD0034BC0
:100320004FF00042DA6202B0BDE8F08100ED00E07B
:100330004027000800BEFEE71EF0040F0CBFEFF3DD
:100340000880EFF309807146244A10472DE9F041F7
:1003500082B004460D46084B5F6BD3F838809E6A26
:10036000064800F0F3FF009543463A4631462046E2
:1003700001F028F800BEFEE700ED00E0502700087D
:100380001EF0040F0CBFEFF30880EFF309807146F5
:10039000134A10472DE9F04182B004460D46084B40
:1003A0005F6BD3F838809E6A064800F0CFFF009557
:1003B00043463A463146204601F004F800BEFEE7C7
:1003C00000ED00E05C27000800BEFEE700BEFEE78F
:1003D00000BEFEE770470000D70200084D0300088A
:0803E0009503000800BEFEE7D2
:1003E800382A00080000002088000020382A000869
:1003F80000000010000000108800002050020020BB
:080408000000001000000010CC
:1004100010B504460E4B1A784FF47A73B3FBF2F31F
:100420000C4A1068B0FBF3F000F0BAF868B90F2C72
:1004300001D901200AE0002221464FF0FF3000F0F0
:100440008BF8054B1C60002000E0012010BD00BFB0
:10045000040000200C0000200800002008B50B4B11
:100460001A6842F400721A601A6842F480621A60D4
:100470001A6842F480721A60032000F04FF80F20CF
:10048000FFF7C6FF01F0D2F9002008BD003C024092
:10049000034A1168034B1B780B441360704700BF7D
:1004A0008C00002004000020014B1868704700BF3A
:1004B0008C000020002808DB0901C9B200F160406F
:1004C00000F5614080F80013704700F00F0009014B
:1004D000C9B2014B1954704714ED00E000B500F0AB
:1004E0000700C0F1070CBCF1040F28BF4FF0040C4B
:1004F000031D062B0FD9C31E4FF0FF3E0EFA0CF062
:1005000021EA000199400EFA03FE22EA0E0241EAB6
:1005100002005DF804FB0023EEE7000010B504467E
:10052000C31E042B0FD80A4AD36823F4E0631B04CC
:100530001B0C240204F4E064234343F0BF6343F440
:100540000033D36010BD9221024801F0E1F8EAE7E0
:1005500000ED00E08C25000870B506460C461546F7
:100560000F2A0ED80F2C11D80B4BD8682A462146DB
:10057000C0F30220FFF7B2FF01463046FFF79AFFB3
:1005800070BDAA21054801F0C3F8EBE7AB21034891
:1005900001F0BEF8E8E700BF00ED00E08C250008A0
:1005A0000138B0F1807F0BD24FF0E0235861054A4B
:1005B000F02182F823100020986107221A61704709
:1005C0000120704700ED00E008B5042807D068B9A5
:1005D0004FF0E022136923F00403136108BD4FF0CC
:1005E000E022136943F004031361F7E740F2C911F5
:1005F000014801F08DF8EBE78C2500082DE9F04368
:1006000083B007460E46AC4B984223D003F5806377
:1006100098421FD003F5806398421BD003F5806396
:10062000984217D003F58063984213D003F5806396
:1006300098420FD003F5806398420BD003F5806396
:10064000984207D003F58063984203D0B3219B48BA
:1006500001F05EF833689AB212B1B3F5803F03D36C
:10066000B421964801F054F87368012B11D9944ACB
:1006700093420ED015D8A2F58012934209D003D927
:10068000904A934205D017E0032B07D9113B012B69
:1006900012D8B368022B14D80024B4E0022B0BD379
:1006A000F7E7894A9342F4D002F580329342F0D0C2
:1006B000A2F580129342ECD0B521804801F028F8D1
:1006C000E7E7B6217D4801F023F8E5E7C8217B483C
:1006D00001F01EF8ADE00F2B40F0DA80E20808329E
:1006E00057F8220004F0070189000F238B4020EA0D
:1006F000030033698B40034347F822303B6809EA23
:100700000309736803F00303AB4043EA09033B604A
:10071000736813F0805F75D0002301936B4B5A6CA4
:1007200042F480425A645B6C03F480430193019B62
:10073000A208911C664B53F8210004F003018900C4
:100740000F238B4020EA03005B4B9F4225D003F52B
:1007500080639F4200F0A18003F580639F4200F018
:100760009E8003F580639F4200F09B8003F58063C9
:100770009F4200F0988003F580639F4200F09580CF
:1007800003F580639F4200F0928003F580639F42EF
:1007900001D0082302E0072300E000238B4003433D
:1007A00002324B4941F822304A4B1A686FEA08037B
:1007B00022EA0801706810F4803F01D048EA020183
:1007C000444A1160526803EA0201706810F4003F65
:1007D00001D048EA02013F4A5160926803EA0201EF
:1007E000706810F4801F01D048EA0201394A916014
:1007F000D2681340716811F4001F01D048EA020367
:10080000344AD36001340F2C53D80125A5403368F6
:1008100003EA050835EA0303F4D173685A1E012A76
:1008200003D9112B01D0122B16D1F368032B3FF6FD
:100830004DAFBA68610003238B4022EA0302F368DC
:100840008B401343BB607A6822EA05027368C3F3E6
:100850000013A34013437B60FA6865000323AB4099
:100860006FEA030922EA0302B368AB401343FB605B
:100870007368022B02D0122B7FF440AF3369002B38
:100880003FF42CAF0D2B3FF626AF002B7FF426AFA5
:10089000E0210A4800F03CFF20E701237EE7022325
:1008A0007CE703237AE7042378E7052376E706232A
:1008B00074E703B0BDE8F08300000240C0250008E3
:1008C000000021100000121000003110003802401A
:1008D00000380140003C014070B5054614460E4604
:1008E00021B1012C08D86CB1AE6170BD40F29F11EE
:1008F000064800F00DFFF4E74FF4D071034800F014
:1009000007FFF0E73604AE61EFE700BFC02500083F
:10091000002800F05B8270B582B0044603680F2B9C
:1009200039D8236813F0010F4DD063682BB1B3F5AC
:10093000803F02D0B3F5A02F32D1804B9B6803F0EB
:100940000C03042B36D07D4B9B6803F00C03082B63
:100950002BD06368B3F5803F5FD0B3F5A02F62D092
:10096000764B1A6822F480321A601A6822F48022C8
:100970001A606368002B60D0FFF796FD05466F4B49
:100980001B6813F4003F1ED1FFF78EFD401B642847
:10099000F5D9032021E2E821694800F0B9FEC0E75B
:1009A000ED21674800F0B4FEC7E7644B5B6813F4C1
:1009B000800FCED0614B1B6813F4003F03D06368F7
:1009C000002B00F00582236813F0020F66D0E36865
:1009D000012B41D823691F2B44D8584B9B6813F037
:1009E0000C0F4AD0554B9B6803F00C03082B3FD0EB
:1009F000E368002B77D0534B01221A60FFF754FDB8
:100A000005464E4B1B6813F0020F63D1FFF74CFDF8
:100A1000401B0228F5D90320DFE1484A136843F45C
:100A200080331360A5E7454B1A6842F480221A60B0
:100A30001A6842F480321A609BE7FFF735FD0546DD
:100A40003E4B1B6813F4003FBDD0FFF72DFD401B4C
:100A50006428F5D90320C0E140F21F11384800F0A6
:100A600057FEB7E74FF49071354800F051FEB4E7F8
:100A7000324B5B6813F4800FBAD1304B1B6813F014
:100A8000020F03D0E368012B40F0A4812B4A1368C6
:100A900023F0F803216943EAC1031360236813F0CC
:100AA000080F51D06369012B2FD863699BB3254B85
:100AB0000122C3F8802EFFF7F7FC05461F4B5B6F42
:100AC00013F0020F40D1FFF7EFFC401B0228F5D9CD
:100AD000032082E1194A136823F0F803216943EAED
:100AE000C1031360DAE7174B00221A60FFF7DCFC42
:100AF0000546124B1B6813F0020FCFD0FFF7D4FC52
:100B0000401B0228F5D9032067E14FF4B0710C486F
:100B100000F0FEFDC9E70B4B0022C3F8802EFFF763
:100B2000C3FC0546054B5B6F13F0020F0CD0FFF7BB
:100B3000BBFC401B0228F5D903204EE100380240DF
:100B4000F025000800004742236813F0040F7CD012
:100B5000A368012B01D9052B38D1A44B1B6C13F0D2
:100B6000805F39D100230193A04B1A6C42F0805270
:100B70001A641B6C03F080530193019B01259C4B6D
:100B80001B6813F4807F29D0A368012B3AD0052B72
:100B90003ED0964B1A6F22F001021A671A6F22F0AC
:100BA00004021A67A368002B3CD0FFF77DFC0646C1
:100BB0008E4B1B6F13F0020F45D1FFF775FC801BA6
:100BC00041F288339842F3D9032006E14FF4C6710D
:100BD000884800F09DFDC0E70025D0E7844A1368EF
:100BE00043F480731360FFF75FFC0646804B1B687D
:100BF00013F4807FC8D1FFF757FC801B0228F5D97A
:100C00000320EAE0794A136F43F001031367C9E751
:100C1000764B1A6F42F004021A671A6F42F0010213
:100C20001A67BFE7FFF740FC0646704B1B6F13F0D7
:100C3000020F08D0FFF738FC801B41F2883398423E
:100C4000F3D90320C9E0002D3ED1A369022B41D87E
:100C5000A369002B00F0C080644A926802F00C0285
:100C6000082A00F09380022B7CD1E36913B1B3F51D
:100C7000800F35D1236A3F2B38D8636A323BB3F5F6
:100C8000BF7F39D8A36A022B08D0082B3AD84FF47B
:100C9000A87222FA03F313F0010F33D0E36A023B88
:100CA0000D2B35D8544B00221A66FFF7FDFB054685
:100CB0004E4B1B6813F0007F30D0FFF7F5FB401B55
:100CC0000228F5D9032088E0484A136C23F08053AA
:100CD0001364BAE740F2CF11464800F019FDB7E7B8
:100CE0004FF4EC71434800F013FDC3E740F2D91113
:100CF000404800F00DFDC0E74FF4ED713D4800F0B5
:100D000007FDBFE740F2DB113A4800F001FDC5E7FF
:100D10004FF4EE71374800F0FBFCC3E7E369226A49
:100D20001343626A43EA8213A26A5208013A43EA11
:100D30000243E26A43EA02632C4A53602E4B0122CB
:100D40001A66FFF7B1FB0446284B1B6813F0007FBF
:100D500006D1FFF7A9FB001B0228F5D903203CE0D0
:100D600000203AE0244B00221A66FFF79DFB044660
:100D70001E4B1B6813F0007F06D0FFF795FB001B8E
:100D80000228F5D9032028E0002026E0012B26D0F8
:100D9000164B5B6803F48001E269914221D103F0B4
:100DA0003F02216A8A421ED1616A47F6C0721A4028
:100DB0008A4223D103F44032A16A8A4220D103F04F
:100DC0007063E26A93421DD1002006E00120704763
:100DD000012002E0012000E0002002B070BD0120EF
:100DE000FBE70120F9E70120F7E700BF00380240E8
:100DF00000700040F0250008000047420120ECE7A9
:100E00000120EAE70120E8E708B5334B9B6803F0CF
:100E10000C03042B5BD0082B5BD12F4B5A6802F0DC
:100E20003F025B6813F4800F2CD02B4B5868C0F343
:100E300088104FEA401CBCEB000C6EEB0E0E4FEA24
:100E40008E1343EA9C634FEA8C11B1EB0C0163EB08
:100E50000E03DB0043EA5173C90011EB000C43F1B0
:100E60000003590200234FEA4C2041EADC5100F014
:100E700015FD194B5B68C3F3014301335B00B0FB05
:100E8000F3F027E0144B5868C0F388104FEA401C79
:100E9000BCEB000C6EEB0E0E4FEA8E1343EA9C6324
:100EA0004FEA8C11B1EB0C0163EB0E03DB0043EA5C
:100EB0005173C90011EB000C43F1000399020023A8
:100EC0004FEA8C2041EA9C5100F0E8FCD1E703484E
:100ED00000E0034808BD00BF0038024000127A005D
:100EE0000024F400002800F0FA8070B50D46044696
:100EF0000368013B0E2B30D8072D34D87C4B1B6880
:100F000003F00F03AB4208D2EBB2794A13701368B7
:100F100003F00F03AB4240F0E480236813F0020FAC
:100F200032D013F0040F04D0724A936843F4E053B4
:100F30009360236813F0080F04D06E4A936843F45B
:100F400060439360A368C3B1C02B16D049D8A02BCF
:100F500013D00ED9B02B10D049E040F25121664891
:100F600000F0D6FBC8E740F25221634800F0D0FB06
:100F7000C4E7802B01D0902B39D15E4A936823F0CF
:100F8000F003A1680B439360236813F0010F48D06E
:100F90006368032B31D86368012B34D09A1E012A71
:100FA00038D9544A126812F0020F00F09C8051495F
:100FB0008A6822F0030213438B60FFF775FA064636
:100FC0004C4B9B6803F00C036268B3EB820F28D094
:100FD000FFF76AFA801B41F288339842F0D9032068
:100FE00070E0E02BC9D0F02BC7D0D02BC5D040F299
:100FF0007521414800F08CFBBFE74FF41F713E485C
:1010000000F086FBC7E73B4A126812F4003FCED1DE
:10101000012057E0374A126812F0007FC7D1012043
:1010200050E0334B1B6803F00F03AB4207D9EAB221
:101030002F4B1A701B6803F00F03AB4255D1236886
:1010400013F0040F14D0E3685BB1B3F5805F08D0F0
:10105000B3F5A05F05D0B3F5C05F02D0B3F5E05F94
:1010600031D1244A936823F4E053E1680B43936041
:10107000236813F0080F15D023695BB1B3F5805FC7
:1010800008D0B3F5A05F05D0B3F5C05F02D0B3F5CB
:10109000E05F1ED1174A936823F46043216943EA55
:1010A000C1039360FFF7B0FE124B9B68C3F30313B9
:1010B000124AD35CD840124B1860124B1868FFF7E5
:1010C000A7F9002070BD40F2BA210B4800F020FBC8
:1010D000C7E740F2C121084800F01AFBDAE7012017
:1010E00070470120EEE70120ECE70120EAE700BFAE
:1010F000003C024000380240F02500086C27000840
:101100000C00002008000020014B1868704700BF49
:101110000C00002008B503460C4A12685AB10B4A6D
:101120001068033323F003030344094A934206D8AB
:10113000064A136008BD054A06491160EFE700F052
:101140005FFD0C2303604FF0FF30F3E790000020B9
:1011500000FC01205002002000B530B9044D1824D5
:1011600020462946ABBE0446FEE7024DF7E700BF26
:1011700026000200230002002DE9F04184B0234F35
:1011800001970326039600230293012401AD204614
:101190002946ABBE80461E4BC3F8008001970396DC
:1011A0000423029320462946ABBE8046194BC3F860
:1011B0000080019703960823029320462946ABBE80
:1011C0000446154B1C60B4F1FF3F01D000230AE038
:1011D000104B1A68104B1A60F8E7104A4FF0FF31B5
:1011E00042F833100133132BF7DD0C4B084A126819
:1011F0001A6000225A60074909689960DA60064956
:10120000096819615A6104B0BDE8F0812026000820
:1012100014010020100100200C0100201801002002
:101220002DE9F04383B0814688462A4B00934F2333
:10123000019315276C4638462146ABBE0746AFBB27
:10124000244B002283F84F20009A3E463C463D4600
:1012500007E001321E46204B43F8252001350124CA
:10126000013292F90030FBB164B91C49C95600291A
:10127000F6DB092BF4D0082D16DC222BE9D0272B26
:10128000E9D1E6E736B19E42EAD1002313703E462B
:101290003C46E5E71149C956002901DB092BDFD19E
:1012A000002313703446DBE73DB900E00025094B0D
:1012B00000221A70084A13600135074B002243F8D8
:1012C0002520C9F80050C8F80030FFF755FF03B0DB
:1012D000BDE8F083BC0000209400002082280008B4
:1012E0002DE9F04385B004460F4643563BBB042529
:1012F00028462146ABBE0546384605B0BDE8F0831A
:1013000014F901CB03F110026A4402F810CC013346
:10131000AB42F5D310336B44002203F8102C4FF08E
:101320000408E94640464946ABBE8046761B002E7F
:10133000E2D03546102E28BF10250023E8E70E46E0
:10134000F5E708B5FFF7CCFF08BD00000FB400B506
:1013500083B004AB53F8042B01938021074800F0BD
:1013600041FC002804DC03B05DF804EB04B07047D6
:1013700001460248FFF7E5FFF5E700BFBC0100208A
:1013800010B5044600F04CFC01462046FFF7D9FF9B
:1013900001210248FFF7D5FF10BD00BFBC260008A1
:1013A000BFF34F8F0549CA6802F4E062044B134350
:1013B000CB60BFF34F8F00BFFDE700BF00ED00E043
:1013C0000400FA05F8B504460D4617461E462748A0
:1013D000FFF7BCFF21682648FFF7B8FF6168254882
:1013E000FFF7B4FFA1682448FFF7B0FFE168234886
:1013F000FFF7ACFF21692248FFF7A8FF6169214888
:10140000FFF7A4FFA1692048FFF7A0FFE1691F488B
:10141000FFF79CFF1E48FFF799FF29461D48FFF77D
:1014200095FF1D4CE16A1D48FFF790FF216B1C489A
:10143000FFF78CFFE16B1B48FFF788FF15F0800F6B
:101440000AD115F4004F0CD11748FFF77FFF06991A
:101450001648FFF77BFFF8BD39461548FFF776FFC2
:10146000EFE731461348FFF771FFEDE72426000848
:101470003426000844260008542600086426000884
:10148000742600088426000894260008A426000874
:10149000B4260008C026000800ED00E0D0260008B1
:1014A000E0260008F026000820270008282700086A
:1014B000002700081027000838B583691B888B4275
:1014C00001D0002038BD044603684568013B302B3D
:1014D0005ED8DFE803F03B211C1C5330332D191973
:1014E0005D19191919193619245D19275D395D5DC2
:1014F0005D5D5D5D5D5D5D5D5D5D5D5D5D5D5D5D1C
:101500005D5D5D5D5D1919004FF0FF330360A369F8
:101510000233A3610120D5E700230360F7E700232E
:101520000360F4E700232B606B60AB60EB60EEE7D9
:1015300000230360EBE7AB680360E8E70023036088
:10154000E5E700230360E2E7FFF72AFF1149286877
:1015500000F05CFB40B96B6813B901232360D6E748
:10156000042B05D0082B06D04FF0FF332360CEE7C5
:1015700002232360CBE703232360C8E72B68023BE9
:10158000012B02D9AB680360C1E700230360BEE70B
:10159000002097E72026000808B500F009F8024A65
:1015A000024B9A6008BD00BF0000000800ED00E09B
:1015B000024B4FF000629A60704700BF00ED00E000
:1015C000224B9B6803F00C03042B14D0082B16D07D
:1015D0001BB11F4B1F4A1A6002E01D4B1D4A1A60C7
:1015E0001A4B9B68C3F303131B4AD15C184A136858
:1015F000CB4013607047164B184A1A60F0E7134B44
:1016000059685A6802F03F0211F4800F13D0134B4F
:10161000B3FBF2F30D4A5268C2F3881202FB03F3E4
:101620000A4A5268C2F3014201325200B3FBF2F39C
:10163000074A1360D4E7074BB3FBF2F3034A52683F
:10164000C2F3881202FB03F3EAE700BF003802404E
:101650000C0000200024F4006C27000800127A001F
:1016600030B595B000240194224B1A6C42F08052A0
:101670001A641B6C03F080530193019B02941E4B70
:101680001A6842F480421A601B6803F48043029394
:10169000029B012308934FF4803309934FF4800396
:1016A0000F93082310934FF4A873119302251295FA
:1016B000072313930E9508A8FFF72AF90F23039326
:1016C000049505944FF4A05306934FF48053079369
:1016D000052103A8FFF706FCFFF716FD074BA3FB48
:1016E00000308009FEF75CFF0420FEF76DFF15B0A7
:1016F00030BD00BF0038024000700040D34D621082
:1017000008B5FEF7ABFEFFF7ABFFFFF759FF08BDCB
:1017100008B50A4601460248FFF718FEFEE700BF7B
:101720007C27000808B501224FF480510148FFF7DB
:10173000D3F808BD000C024008B500224FF48051D8
:101740000148FFF7C9F808BD000C024000B587B09A
:101750000A4A136B43F0080313634FF48053019359
:101760000123029302220492039301A90448FEF785
:1017700045FFFFF7E1FF07B05DF804FB00380240CA
:10178000000C024070B51F48FFF7FAFD1E48FFF736
:10179000F7FD1E4B19681E48FFF7D8FD00F048F80A
:1017A000FFF7D4FF002522E040F2EE2000F05CF8C5
:1017B000FA2000F059F8013529461648FFF7C6FD12
:1017C000154BA3FB052323F0030404EB93042C1B0C
:1017D000124E56F824101248FFF7B8FD56F8243080
:1017E0001E2B09DDFFF79EFF0E48FFF7C9FD002DF8
:1017F000DAD14FF47A70D9E7FFF79EFF0A48FFF776
:10180000BFFDF4E7AC270008CC2700080C0000203F
:101810000828000820280008CDCCCCCC10000020DF
:101820002C280008402800086428000870470000A1
:101830000A4B1B680A4AA2FB03239B09013BB3F135
:10184000807F0AD24FF0E0225361064BF02183F8EB
:101850002310002393610723136170470C000020BD
:10186000D34D621000ED00E0034B1860024B1B6883
:10187000002BFBD1704700BF3C020020034B1B68CC
:101880001BB1024A1368013B136070473C02002001
:1018900008B5FEF7FDFDFFF7F1FF08BD53B94AB9E2
:1018A000002908BF00281CBF4FF0FF314FF0FF3068
:1018B00000F06AB9ADF1080C6DE904CE00F006F84D
:1018C000DDF804E0DDE9022304B070472DE9F047BC
:1018D000089D0C46002B4ED194468C458646B2FAA4
:1018E00082F262D94AB1C2F12003914020FA03F397
:1018F0000CFA02FC194300FA02FE4FEA1C471FFAD9
:101900008CF6B1FBF7F44FEA1E4307FB141143EAD0
:10191000014304FB06F199420AD91CEB030304F1CD
:10192000FF3080F01281994240F20F81023C634403
:10193000591A1FFA8EF3B1FBF7F007FB101143EAB7
:10194000014300FB06F69E420AD91CEB030300F19B
:10195000FF3180F0FC809E4240F2F98063440238FF
:101960009B1B40EA044000211DB1D3400022C5E981
:101970000032BDE8F0878B4205D90DB1C5E9000101
:1019800000210846F5E7B3FA83F1002946D1A342C6
:1019900002D39042C0F0F080861A64EB030301206A
:1019A000002DE6D0C5E90063E3E7002A40F090800F
:1019B000A1EB0C044FEA1C481FFA8CF70121B4FB81
:1019C000F8F64FEA1E4308FB164443EA044307FBBC
:1019D00006F0984208D91CEB030306F1FF3402D24B
:1019E000984200F2CD8026461C1A1FFA8EF3B4FBF3
:1019F000F8F008FB104443EA044300FB07F79F425A
:101A000008D91CEB030300F1FF3402D29F4200F21D
:101A1000B0802046DB1B40EA0640A5E7C1F1200666
:101A20008B4022FA06F71F4320FA06FC04FA01F362
:101A300043EA0C03F44000FA01F8380C4FEA13496A
:101A4000B4FBF0FE1FFA87FC00FB1E4449EA044485
:101A50000EFB0CF9A14502FA01F20AD93C190EF16C
:101A6000FF3A80F08480A14540F28180AEF1020E01
:101A70003C44A4EB09041FFA83F9B4FBF0F300FB28
:101A8000134449EA044403FB0CFCA44507D93C1960
:101A900003F1FF3067D2A44565D9023B3C4443EAD9
:101AA0000E40A0FB0293A4EB0C049C42CE469C4645
:101AB00051D34ED055B1B8EB0E0364EB0C0404FACD
:101AC00006F6CB401E43CC40C5E90064002150E738
:101AD000C2F1200320FA03F10CFA02FC24FA03F30A
:101AE00094400C434FEA1C4800FA02FE1FFA8CF7A0
:101AF000B3FBF8F008FB1031230C43EA014300FB71
:101B000007F1994208D91CEB030300F1FF362CD2F0
:101B100099422AD9023863445B1AA4B2B3FBF8F1A4
:101B200008FB113344EA034401FB07F3A34208D93D
:101B30001CEB040401F1FF3613D2A34211D9023980
:101B40006444E41A41EA004139E70446F0E60846F5
:101B500006E7C845AED2B9EB020E63EB070C0138BD
:101B6000A8E73146EDE7034699E73046D4E7D64685
:101B70007FE7634402384DE70646234608460FE7F1
:101B8000023E634430E700BF704700BF30B51446E3
:101B9000002C9BB005461A4605DA8B2303604FF0F4
:101BA000FF301BB030BD4FF40273ADF80C3014BFE2
:101BB00004F1FF332346029305934FF6FF73009120
:101BC0000491ADF80E3069461E9B00F08DF8431C61
:101BD000BCBF8B232B60002CE3D0009B00221A702B
:101BE000DFE7000007B5009313460A4601460348A5
:101BF0000068FFF7CBFF03B05DF804FB3400002062
:101C0000014B1868704700BF3400002010F8012B0A
:101C100011F8013B012A28BF9A42F7D0D01A704729
:101C2000034613F8012B002AFBD1181A013870471C
:101C30002DE9F0478E681F46BE420B6882460C466F
:101C400090462DD8B1F90C2012F4906F26D065691A
:101C5000096905EB4505A3EB010905EBD5757B1C6F
:101C60004B446D109D4238BF1D46530527D529466C
:101C700000F0B8FB064660B321694A4600F038FB25
:101C8000A38923F4906343F08003A38126616561F7
:101C90004E44A5EB09052660A5603E46BE4200D92C
:101CA0003E4620683246414600F0B4FAA3689B1BCA
:101CB000A3602368334423600020BDE8F0872A46F0
:101CC00000F01CFC06460028E0D12169504600F0D7
:101CD0001DFB0C23CAF80030A38943F04003A38105
:101CE0004FF0FF30E9E700002DE9F04F98468B896F
:101CF0001B069DB007460D46144610D50B6973B9F7
:101D0000402100F06FFB2860286130B90C233B6054
:101D10004FF0FF301DB0BDE8F08F40236B61002312
:101D2000099320238DF82930CDF80C803023DFF87B
:101D30009C818DF82A304FF0010923469A4613F80A
:101D4000012B0AB1252AF9D1BAEB040B0BD05B4663
:101D5000224629463846FFF76BFF013000F0A78086
:101D6000099A5A4409929AF80030002B00F09F809B
:101D700000234FF0FF32CDE905230AF1010A049355
:101D800007938DF853301A935446052214F8011B1B
:101D90004E4800F05DFA049AD8B9D00644BF20231B
:101DA0008DF85330110744BF2B238DF853309AF828
:101DB00000302A2B15D0079A544600204FF00A0C09
:101DC000214611F8013B303B092B4BD9B0B10792AA
:101DD00014E0A0EB080309FA03F313430493A246AB
:101DE000D2E7039B191D1B680391002BBBBF5B420D
:101DF00042F0020207930793B8BF049223782E2B78
:101E00000AD163782A2B32D1039B1A1D1B680392D7
:101E100043EAE37302340593DFF8B4A02178032288
:101E2000504600F015FA38B1049BA0EB0A0040229E
:101E3000824013430134049314F8011B25488DF8A4
:101E40002810062200F004FA002836D0224B1BBBD3
:101E5000039B073323F0070308330393099B3344A1
:101E600009936AE70CFB02320C460120A8E7002325
:101E70000134059319464FF00A0C204610F8012B47
:101E8000303A092A03D9002BC6D00591C4E70CFBD0
:101E9000012104460123F0E703AB00932A460F4BD0
:101EA00004A93846AFF30080421C0646D6D1AB8960
:101EB0005B063FF52DAF09982CE703AB00932A464C
:101EC000064B04A9384600F079F8EDE782290008AE
:101ED000882900088C29000800000000311C000837
:101EE0002DE9F047164698468A680B69DDF8209080
:101EF0009342B8BF1346336091F8432007460C461F
:101F00000AB1013333602368990642BF3368023354
:101F10003360256815F0060506D104F1190AE36857
:101F200032689B1AAB4226DC94F843302268003BAF
:101F300018BF012392062BD404F1430241463846D0
:101F4000C84701301ED02368226903F00603042B22
:101F500002BFE5683368ED1AA3680CBF25EAE57592
:101F600000259342C4BF9B1AED1800261A34B542CF
:101F70001AD1002008E00123524641463846C8479E
:101F8000013003D14FF0FF30BDE8F0870135C6E7DF
:101F9000E1185A1C302081F84300224494F845107F
:101FA00082F843100233C7E70123224641463846F0
:101FB000C8470130E6D00136D9E700002DE9FF47D8
:101FC0000F7E0C9E782F914680460C469A4601F172
:101FD000430207D8622F0AD8002F00F0DD80582F67
:101FE00000F0C38004F1420684F842703AE0A7F1A1
:101FF0006303152BF6D801A151F823F055200008F2
:1020000069200008E51F0008E51F0008E51F00081B
:10201000E51F000869200008E51F0008E51F00080B
:10202000E51F0008E51F00087F210008F7200008D1
:1020300037210008E51F0008E51F0008A12100085E
:10204000E51F0008F7200008E51F0008E51F00084D
:102050003F21000833681A1D1B68326004F14206F4
:1020600084F842300123A8E031682368081D3060FD
:102070001E0601D50D6803E05D06FBD5B1F90050E1
:102080006168002D78DA2D20002984F84300A160D2
:102090002DDA5E486D420A231646B5FBF3F103FBC9
:1020A0001157C75D06F8017D2F46BB420D46F4D996
:1020B000082B0BD12368DF0708D523696168994293
:1020C000DEBF302306F8013C06F1FF36921B226189
:1020D000CDF800A04B4603AA21464046FFF700FF7B
:1020E00001306FD14FF0FF3004B0BDE8F08723F02E
:1020F00004032360CDE721683368080653F8045BC6
:1021000002D4490648BFADB26F2F4048336014BFB8
:102110000A230823002184F843106668A660002E75
:10212000BADB216821F004012160002DB4D1002E1A
:10213000B2D11646BCE7236843F02003236034483D
:10214000782784F84570236831681F0651F8045BCE
:1021500002D45F0648BFADB23160D90744BF43F037
:10216000200323601DB11023D4E72848E9E7236842
:1021700023F020032360F6E724480A23CDE73368E1
:1021800025686169181D30602E061B6801D519602D
:1021900002E06806FBD5198000232361164697E705
:1021A00033681A1D32601E6862680021304600F0F4
:1021B0004FF808B1801B606063682361002384F8D6
:1021C000433085E72369324649464046D0470130CF
:1021D00088D023689B0714D4E068039B9842B8BF5B
:1021E000184681E70123324649464046D047013030
:1021F0003FF478AF0135E36803995B1AAB42F1DC39
:10220000EAE7002504F11906F5E700BF9329000865
:10221000A4290008884210B501EB020402D98442C7
:10222000234607D8431EA14208D011F8012B03F81A
:10223000012FF8E7024401468A4200D110BD13F88D
:10224000014D02F8014DF7E700000000000000001A
:1022500001F0FF01102A2BDB10F0070F08D010F857
:10226000013B013A8B422DD010F0070F42B3F6D15B
:10227000F0B441EA012141EA014122F007047FF074
:1022800000070023F0E80256083C85EA010586EACB
:10229000010685FA47F5A3FA87F586FA47F6A5FA07
:1022A00087F68EB9EED1F0BC01F0FF0102F0070213
:1022B00032B110F8013B013A83EA010313B1F8D1BE
:1022C0000020704701387047002D06BF354603389F
:1022D000073815F0010F07D1013015F4807F02BFD8
:1022E000013015F4C03F0130F0BC0138704700BF29
:1022F0000A44914200F1FF3300D1704710B511F844
:10230000014B03F8014F9142F9D110BD38B5054694
:10231000002941D051F8043C0C1F002BB8BFE41831
:1023200000F0E0F81D4A136833B963601460284672
:10233000BDE8384000F0DCB8A34208D92068211875
:102340008B4201BF19685B6809182160EDE71A46E6
:102350005B680BB1A342FAD911685018A0420BD1A7
:1023600020680144501883421160E0D118685B680E
:10237000536008441060DAE702D90C232B60D6E7DB
:10238000206821188B4204BF19685B68636004BF32
:10239000091821605460CAE738BD00BF440200201C
:1023A00070B50F4E0C463168054611B900F0D4F8EF
:1023B00030602146284600F0CFF8431C03D14FF08F
:1023C000FF34204670BDC41C24F00304A042F8D0A2
:1023D000211A284600F0C0F80130F2D1EFE700BF23
:1023E000400200202DE9F843CD1C25F003050835F7
:1023F0000C2D38BF0C25002D064601DBA94204D95F
:102400000C2333600020BDE8F883DFF8D48000F0AF
:1024100069F8D8F800301C4644BB29463046FFF71F
:10242000BFFF431C044658D1D8F800402746002F70
:1024300043D1002C4BD023683946304604EB0309C6
:1024400000F08AF8814542D121686D1A294630464C
:10245000FFF7A6FF01303AD023682B442360D8F859
:1024600000305A6862BBC8F800700FE02268521B47
:1024700020D40B2A17D96119A342256018BF5960CF
:10248000636808BFC8F8001062514B60304600F026
:102490002FF804F10B00231D20F00700C21A1CBF07
:1024A0001B1AA350AFE76268A3420CBFC8F8002014
:1024B0005A60EBE723466468AEE73C467F68B6E7C0
:1024C0001A465B68A342FBD100235360DEE70C236E
:1024D0003360304600F00CF894E70560D6E700BFA3
:1024E00044020020014800F047B800BF4802002025
:1024F000014800F042B800BF480200202DE9F04139
:10250000804615460C4621B9BDE8F0411146FFF75B
:1025100069BF2AB9FFF7FAFE00242046BDE8F08122
:1025200000F02CF88542064602D8B5EB500FF4D8DF
:1025300029464046FFF756FF07460028ECD0B54233
:102540002A46214628BF3246FFF7D2FE21464046A2
:10255000FFF7DCFE3C46E0E738B5064D00230446B5
:1025600008462B60FEF7D6FD431C02D12B6803B151
:10257000236038BDB80100207047704751F8043C13
:10258000181F002BBCBF0B58C01870472E2E2F737E
:10259000797374656D2F7372632F73746D33326644
:1025A000342D68616C2F73746D3332663478785FC4
:1025B00068616C5F636F727465782E630000000061
:1025C0002E2E2F73797374656D2F7372632F73744E
:1025D0006D333266342D68616C2F73746D333266DF
:1025E0003478785F68616C5F6770696F2E63000094
:1025F0002E2E2F73797374656D2F7372632F73741E
:102600006D333266342D68616C2F73746D333266AE
:102610003478785F68616C5F7263632E63000000DA
:102620003A747400537461636B206672616D653A2D
:102630000A000000205230203D2020253038580A62
:1026400000000000205231203D2020253038580A5B
:1026500000000000205232203D2020253038580A4A
:1026600000000000205233203D2020253038580A39
:102670000000000020523132203D20253038580A19
:1026800000000000204C52203D2020253038580A00
:1026900000000000205043203D2020253038580AFB
:1026A0000000000020505352203D20253038580AA9
:1026B000000000004653522F4641523A0A000000E3
:1026C0002043465352203D2020253038580A000030
:1026D0002048465352203D2020253038580A00001B
:1026E0002044465352203D2020253038580A00000F
:1026F0002041465352203D2020253038580A000002
:10270000204D4D464152203D20253038580A0000CA
:102710002042464152203D2020253038580A0000F2
:102720004D6973630A000000204C522F4558435FE7
:1027300052455455524E3D20253038580A0000006D
:102740005B486172644661756C745D0A000000004C
:102750005B4275734661756C745D0A005B5573610D
:1027600067654661756C745D0A000000000000003A
:1027700000000000010203040607080957726F6E8B
:102780006720706172616D65746572732076616C2B
:1027900075653A2066696C65202573206F6E206C24
:1027A000696E652025640D0A000000004368756F9E
:1027B0006E67207472696E682074616E206E68693D
:1027C000657420747520646F6E6721004E686965BA
:1027D0007420646F203E2033352062617420746160
:1027E0006E206E686965742C204E6869657420647B
:1027F0006F203C203335207461742074616E206E2C
:10280000686965742100000053797374656D2063F5
:102810006C6F636B3A20257520487A0A000000002F
:102820005365636F6E642025750A000054656D70F2
:10283000657261747572653A2025640A00000000B3
:10284000424154204441552054414E204E48494570
:10285000542C204C45442058414E4820424154219C
:10286000000000005441542054414E204E48494538
:10287000542C204C45442058414E4820544154216A
:102880000000202020202020202020282828282860
:102890002020202020202020202020202020202038
:1028A0002020881010101010101010101010101090
:1028B0001010040404040404040404041010101090
:1028C000101010414141414141010101010101014B
:1028D00001010101010101010101010101101010BB
:1028E000101010424242424242020202020202021E
:1028F000020202020202020202020202021010108E
:102900001020000000000000000000000000000097
:1029100000000000000000000000000000000000B7
:1029200000000000000000000000000000000000A7
:102930000000000000000000000000000000000097
:102940000000000000000000000000000000000087
:102950000000000000000000000000000000000077
:102960000000000000000000000000000000000067
:102970000000000000000000000000000000000057
:102980000000232D302B2000686C4C0065666745E5
:1029900046470030313233343536373839414243D7
:1029A0004445460030313233343536373839616288
:1029B0006364656600000000100000000000000075
:1029C000017A5200027C0E011B0C0D001000000069
:1029D000180000004CF2FFFF100000000000000093
:1029E0001000000000000000017A5200027C0E017D
:1029F0001B0C0D00380000001800000054F8FFFF09
:102A00009E00000000510E10840485038602870199
:102A10005BC7C6C5C40E004C0A420B0A420B0E101F
:102A2000840485038602870151C7C6C5C40E000011
:082A30009CEEFF7F0100000095
:102A38007856341201FFFFFF100000000024F40054
:102A4800160000001700000021000000230000000D
:102A58000C000000210000001B0000000F00000017
:102A680025000000380000200000000000000000E1
:102A780068000000D0000000000000000000000016
:102A8800000000000000000000000000000000003E
:102A9800000000000000000000000000000000002E
:102AA800000000000000000000000000000000001E
:082AB800000000003254769882
:040000050800018965
:00000001FF
